{
  "address": "0xF408662dc53C1790CE923E4A526F6F1AeA744cE0",
  "abi": [
    {
      "inputs": [
        {
          "internalType": "address",
          "name": "_endpoint",
          "type": "address"
        },
        {
          "internalType": "address",
          "name": "_owner",
          "type": "address"
        }
      ],
      "stateMutability": "nonpayable",
      "type": "constructor"
    },
    {
      "inputs": [
        {
          "internalType": "address",
          "name": "target",
          "type": "address"
        }
      ],
      "name": "AddressEmptyCode",
      "type": "error"
    },
    {
      "inputs": [
        {
          "internalType": "address",
          "name": "account",
          "type": "address"
        }
      ],
      "name": "AddressInsufficientBalance",
      "type": "error"
    },
    {
      "inputs": [],
      "name": "FailedInnerCall",
      "type": "error"
    },
    {
      "inputs": [],
      "name": "InvalidDelegate",
      "type": "error"
    },
    {
      "inputs": [],
      "name": "InvalidEndpointCall",
      "type": "error"
    },
    {
      "inputs": [
        {
          "internalType": "bytes",
          "name": "options",
          "type": "bytes"
        }
      ],
      "name": "InvalidOptions",
      "type": "error"
    },
    {
      "inputs": [],
      "name": "LzTokenUnavailable",
      "type": "error"
    },
    {
      "inputs": [
        {
          "internalType": "uint32",
          "name": "eid",
          "type": "uint32"
        }
      ],
      "name": "NoPeer",
      "type": "error"
    },
    {
      "inputs": [
        {
          "internalType": "uint256",
          "name": "msgValue",
          "type": "uint256"
        }
      ],
      "name": "NotEnoughNative",
      "type": "error"
    },
    {
      "inputs": [
        {
          "internalType": "address",
          "name": "addr",
          "type": "address"
        }
      ],
      "name": "OnlyEndpoint",
      "type": "error"
    },
    {
      "inputs": [
        {
          "internalType": "uint32",
          "name": "eid",
          "type": "uint32"
        },
        {
          "internalType": "bytes32",
          "name": "sender",
          "type": "bytes32"
        }
      ],
      "name": "OnlyPeer",
      "type": "error"
    },
    {
      "inputs": [
        {
          "internalType": "address",
          "name": "owner",
          "type": "address"
        }
      ],
      "name": "OwnableInvalidOwner",
      "type": "error"
    },
    {
      "inputs": [
        {
          "internalType": "address",
          "name": "account",
          "type": "address"
        }
      ],
      "name": "OwnableUnauthorizedAccount",
      "type": "error"
    },
    {
      "inputs": [
        {
          "internalType": "address",
          "name": "token",
          "type": "address"
        }
      ],
      "name": "SafeERC20FailedOperation",
      "type": "error"
    },
    {
      "anonymous": false,
      "inputs": [
        {
          "components": [
            {
              "internalType": "uint32",
              "name": "eid",
              "type": "uint32"
            },
            {
              "internalType": "uint16",
              "name": "msgType",
              "type": "uint16"
            },
            {
              "internalType": "bytes",
              "name": "options",
              "type": "bytes"
            }
          ],
          "indexed": false,
          "internalType": "struct EnforcedOptionParam[]",
          "name": "_enforcedOptions",
          "type": "tuple[]"
        }
      ],
      "name": "EnforcedOptionSet",
      "type": "event"
    },
    {
      "anonymous": false,
      "inputs": [
        {
          "indexed": true,
          "internalType": "address",
          "name": "previousOwner",
          "type": "address"
        },
        {
          "indexed": true,
          "internalType": "address",
          "name": "newOwner",
          "type": "address"
        }
      ],
      "name": "OwnershipTransferred",
      "type": "event"
    },
    {
      "anonymous": false,
      "inputs": [
        {
          "indexed": false,
          "internalType": "uint32",
          "name": "eid",
          "type": "uint32"
        },
        {
          "indexed": false,
          "internalType": "bytes32",
          "name": "peer",
          "type": "bytes32"
        }
      ],
      "name": "PeerSet",
      "type": "event"
    },
    {
      "inputs": [],
      "name": "SEND",
      "outputs": [
        {
          "internalType": "uint16",
          "name": "",
          "type": "uint16"
        }
      ],
      "stateMutability": "view",
      "type": "function"
    },
    {
      "inputs": [
        {
          "components": [
            {
              "internalType": "uint32",
              "name": "srcEid",
              "type": "uint32"
            },
            {
              "internalType": "bytes32",
              "name": "sender",
              "type": "bytes32"
            },
            {
              "internalType": "uint64",
              "name": "nonce",
              "type": "uint64"
            }
          ],
          "internalType": "struct Origin",
          "name": "origin",
          "type": "tuple"
        }
      ],
      "name": "allowInitializePath",
      "outputs": [
        {
          "internalType": "bool",
          "name": "",
          "type": "bool"
        }
      ],
      "stateMutability": "view",
      "type": "function"
    },
    {
      "inputs": [
        {
          "internalType": "uint32",
          "name": "_eid",
          "type": "uint32"
        },
        {
          "internalType": "uint16",
          "name": "_msgType",
          "type": "uint16"
        },
        {
          "internalType": "bytes",
          "name": "_extraOptions",
          "type": "bytes"
        }
      ],
      "name": "combineOptions",
      "outputs": [
        {
          "internalType": "bytes",
          "name": "",
          "type": "bytes"
        }
      ],
      "stateMutability": "view",
      "type": "function"
    },
    {
      "inputs": [],
      "name": "endpoint",
      "outputs": [
        {
          "internalType": "contract ILayerZeroEndpointV2",
          "name": "",
          "type": "address"
        }
      ],
      "stateMutability": "view",
      "type": "function"
    },
    {
      "inputs": [
        {
          "internalType": "uint32",
          "name": "eid",
          "type": "uint32"
        },
        {
          "internalType": "uint16",
          "name": "msgType",
          "type": "uint16"
        }
      ],
      "name": "enforcedOptions",
      "outputs": [
        {
          "internalType": "bytes",
          "name": "enforcedOption",
          "type": "bytes"
        }
      ],
      "stateMutability": "view",
      "type": "function"
    },
    {
      "inputs": [
        {
          "components": [
            {
              "internalType": "uint32",
              "name": "srcEid",
              "type": "uint32"
            },
            {
              "internalType": "bytes32",
              "name": "sender",
              "type": "bytes32"
            },
            {
              "internalType": "uint64",
              "name": "nonce",
              "type": "uint64"
            }
          ],
          "internalType": "struct Origin",
          "name": "",
          "type": "tuple"
        },
        {
          "internalType": "bytes",
          "name": "",
          "type": "bytes"
        },
        {
          "internalType": "address",
          "name": "_sender",
          "type": "address"
        }
      ],
      "name": "isComposeMsgSender",
      "outputs": [
        {
          "internalType": "bool",
          "name": "",
          "type": "bool"
        }
      ],
      "stateMutability": "view",
      "type": "function"
    },
    {
      "inputs": [],
      "name": "lastMessage",
      "outputs": [
        {
          "internalType": "string",
          "name": "",
          "type": "string"
        }
      ],
      "stateMutability": "view",
      "type": "function"
    },
    {
      "inputs": [
        {
          "components": [
            {
              "internalType": "uint32",
              "name": "srcEid",
              "type": "uint32"
            },
            {
              "internalType": "bytes32",
              "name": "sender",
              "type": "bytes32"
            },
            {
              "internalType": "uint64",
              "name": "nonce",
              "type": "uint64"
            }
          ],
          "internalType": "struct Origin",
          "name": "_origin",
          "type": "tuple"
        },
        {
          "internalType": "bytes32",
          "name": "_guid",
          "type": "bytes32"
        },
        {
          "internalType": "bytes",
          "name": "_message",
          "type": "bytes"
        },
        {
          "internalType": "address",
          "name": "_executor",
          "type": "address"
        },
        {
          "internalType": "bytes",
          "name": "_extraData",
          "type": "bytes"
        }
      ],
      "name": "lzReceive",
      "outputs": [],
      "stateMutability": "payable",
      "type": "function"
    },
    {
      "inputs": [
        {
          "internalType": "uint32",
          "name": "",
          "type": "uint32"
        },
        {
          "internalType": "bytes32",
          "name": "",
          "type": "bytes32"
        }
      ],
      "name": "nextNonce",
      "outputs": [
        {
          "internalType": "uint64",
          "name": "nonce",
          "type": "uint64"
        }
      ],
      "stateMutability": "view",
      "type": "function"
    },
    {
      "inputs": [],
      "name": "oAppVersion",
      "outputs": [
        {
          "internalType": "uint64",
          "name": "senderVersion",
          "type": "uint64"
        },
        {
          "internalType": "uint64",
          "name": "receiverVersion",
          "type": "uint64"
        }
      ],
      "stateMutability": "pure",
      "type": "function"
    },
    {
      "inputs": [],
      "name": "owner",
      "outputs": [
        {
          "internalType": "address",
          "name": "",
          "type": "address"
        }
      ],
      "stateMutability": "view",
      "type": "function"
    },
    {
      "inputs": [
        {
          "internalType": "uint32",
          "name": "eid",
          "type": "uint32"
        }
      ],
      "name": "peers",
      "outputs": [
        {
          "internalType": "bytes32",
          "name": "peer",
          "type": "bytes32"
        }
      ],
      "stateMutability": "view",
      "type": "function"
    },
    {
      "inputs": [
        {
          "internalType": "uint32",
          "name": "_dstEid",
          "type": "uint32"
        },
        {
          "internalType": "string",
          "name": "_string",
          "type": "string"
        },
        {
          "internalType": "bytes",
          "name": "_options",
          "type": "bytes"
        },
        {
          "internalType": "bool",
          "name": "_payInLzToken",
          "type": "bool"
        }
      ],
      "name": "quoteSendString",
      "outputs": [
        {
          "components": [
            {
              "internalType": "uint256",
              "name": "nativeFee",
              "type": "uint256"
            },
            {
              "internalType": "uint256",
              "name": "lzTokenFee",
              "type": "uint256"
            }
          ],
          "internalType": "struct MessagingFee",
          "name": "fee",
          "type": "tuple"
        }
      ],
      "stateMutability": "view",
      "type": "function"
    },
    {
      "inputs": [],
      "name": "renounceOwnership",
      "outputs": [],
      "stateMutability": "nonpayable",
      "type": "function"
    },
    {
      "inputs": [
        {
          "internalType": "uint32",
          "name": "_dstEid",
          "type": "uint32"
        },
        {
          "internalType": "string",
          "name": "_string",
          "type": "string"
        },
        {
          "internalType": "bytes",
          "name": "_options",
          "type": "bytes"
        }
      ],
      "name": "sendString",
      "outputs": [],
      "stateMutability": "payable",
      "type": "function"
    },
    {
      "inputs": [
        {
          "internalType": "address",
          "name": "_delegate",
          "type": "address"
        }
      ],
      "name": "setDelegate",
      "outputs": [],
      "stateMutability": "nonpayable",
      "type": "function"
    },
    {
      "inputs": [
        {
          "components": [
            {
              "internalType": "uint32",
              "name": "eid",
              "type": "uint32"
            },
            {
              "internalType": "uint16",
              "name": "msgType",
              "type": "uint16"
            },
            {
              "internalType": "bytes",
              "name": "options",
              "type": "bytes"
            }
          ],
          "internalType": "struct EnforcedOptionParam[]",
          "name": "_enforcedOptions",
          "type": "tuple[]"
        }
      ],
      "name": "setEnforcedOptions",
      "outputs": [],
      "stateMutability": "nonpayable",
      "type": "function"
    },
    {
      "inputs": [
        {
          "internalType": "uint32",
          "name": "_eid",
          "type": "uint32"
        },
        {
          "internalType": "bytes32",
          "name": "_peer",
          "type": "bytes32"
        }
      ],
      "name": "setPeer",
      "outputs": [],
      "stateMutability": "nonpayable",
      "type": "function"
    },
    {
      "inputs": [
        {
          "internalType": "address",
          "name": "newOwner",
          "type": "address"
        }
      ],
      "name": "transferOwnership",
      "outputs": [],
      "stateMutability": "nonpayable",
      "type": "function"
    }
  ],
  "transactionHash": "0x34200aa428a852b0ad4260f90af53b03b51185da295d176a669712be03751b6a",
  "args": [
    "0x6EDCE65403992e310A62460808c4b910D972f10f",
    "0x4e1Eb505De5187cF415E3adD2D51fDbB57a58E7c"
  ],
  "numDeployments": 1,
  "solcInputHash": "e1069d2e44334eec4a3207a84015e768",
  "bytecode": "0x60a06040523480156200001157600080fd5b5060405162001d9038038062001d9083398101604081905262000034916200017c565b81818181806001600160a01b0381166200006857604051631e4fbdf760e01b81526000600482015260240160405180910390fd5b62000073816200010f565b506001600160a01b038083166080528116620000a257604051632d618d8160e21b815260040160405180910390fd5b60805160405163ca5eb5e160e01b81526001600160a01b0383811660048301529091169063ca5eb5e190602401600060405180830381600087803b158015620000ea57600080fd5b505af1158015620000ff573d6000803e3d6000fd5b50505050505050505050620001b4565b600080546001600160a01b038381166001600160a01b0319831681178455604051919092169283917f8be0079c531659141344cd1fd0a4f28419497f9722a3daafe3b4186f6b6457e09190a35050565b80516001600160a01b03811681146200017757600080fd5b919050565b600080604083850312156200019057600080fd5b6200019b836200015f565b9150620001ab602084016200015f565b90509250929050565b608051611b96620001fa60003960008181610204015281816103f4015281816107e001528181610a2f01528181610cab01528181610da20152610e590152611b966000f3fe6080604052600436106101145760003560e01c80637d25a05e116100a0578063bc70b35411610064578063bc70b35414610337578063ca5eb5e114610357578063d3b4866e14610377578063f2fde38b146103b2578063ff7bd03d146103d257600080fd5b80637d25a05e1461025357806382413eac1461028e5780638da5cb5b146102be578063b98bd070146102dc578063bb0b6a53146102fc57600080fd5b80633400288b116100e75780633400288b1461019f57806336ef9620146101bf5780635535d461146101d25780635e280f11146101f2578063715018a61461023e57600080fd5b806313137d651461011957806317442b701461012e5780631f5e133414610155578063329707101461017d575b600080fd5b61012c610127366004611131565b6103f2565b005b34801561013a57600080fd5b50604080516001815260026020820152015b60405180910390f35b34801561016157600080fd5b5061016a600181565b60405161ffff909116815260200161014c565b34801561018957600080fd5b506101926104b2565b60405161014c9190611220565b3480156101ab57600080fd5b5061012c6101ba36600461124c565b610540565b61012c6101cd366004611276565b610556565b3480156101de57600080fd5b506101926101ed366004611308565b6105aa565b3480156101fe57600080fd5b506102267f000000000000000000000000000000000000000000000000000000000000000081565b6040516001600160a01b03909116815260200161014c565b34801561024a57600080fd5b5061012c6105ce565b34801561025f57600080fd5b5061027661026e36600461124c565b600092915050565b6040516001600160401b03909116815260200161014c565b34801561029a57600080fd5b506102ae6102a936600461133b565b6105e2565b604051901515815260200161014c565b3480156102ca57600080fd5b506000546001600160a01b0316610226565b3480156102e857600080fd5b5061012c6102f73660046113a1565b6105f7565b34801561030857600080fd5b50610329610317366004611415565b60016020526000908152604090205481565b60405190815260200161014c565b34801561034357600080fd5b50610192610352366004611430565b610611565b34801561036357600080fd5b5061012c610372366004611490565b6107b9565b34801561038357600080fd5b506103976103923660046114bb565b61083f565b6040805182518152602092830151928101929092520161014c565b3480156103be57600080fd5b5061012c6103cd366004611490565b61089d565b3480156103de57600080fd5b506102ae6103ed36600461154d565b6108db565b7f00000000000000000000000000000000000000000000000000000000000000006001600160a01b03163314610442576040516391ac5e4f60e01b81523360048201526024015b60405180910390fd5b6020870180359061045c90610457908a611415565b610911565b1461049a5761046e6020880188611415565b60405163309afaf360e21b815263ffffffff909116600482015260208801356024820152604401610439565b6104a987878787878787610953565b50505050505050565b600380546104bf90611569565b80601f01602080910402602001604051908101604052809291908181526020018280546104eb90611569565b80156105385780601f1061050d57610100808354040283529160200191610538565b820191906000526020600020905b81548152906001019060200180831161051b57829003601f168201915b505050505081565b61054861097a565b61055282826109a7565b5050565b6000848460405160200161056b9291906115c6565b60405160208183030381529060405290506104a9868261058e8960018888610611565b60405180604001604052803481526020016000815250336109fc565b6002602090815260009283526040808420909152908252902080546104bf90611569565b6105d661097a565b6105e06000610b07565b565b6001600160a01b03811630145b949350505050565b6105ff61097a565b61055261060c828461169f565b610b57565b63ffffffff8416600090815260026020908152604080832061ffff8716845290915281208054606092919061064590611569565b80601f016020809104026020016040519081016040528092919081815260200182805461067190611569565b80156106be5780601f10610693576101008083540402835291602001916106be565b820191906000526020600020905b8154815290600101906020018083116106a157829003601f168201915b50505050509050805160000361070e5783838080601f0160208091040260200160405190810160405280939291908181526020018383808284376000920191909152509294506105ef9350505050565b600083900361071e5790506105ef565b6002831061079c5761076584848080601f016020809104026020016040519081016040528093929190818152602001838380828437600092019190915250610c6992505050565b806107738460028188611787565b604051602001610785939291906117b1565b6040516020818303038152906040529150506105ef565b8383604051639a6d49cd60e01b81526004016104399291906115c6565b6107c161097a565b60405163ca5eb5e160e01b81526001600160a01b0382811660048301527f0000000000000000000000000000000000000000000000000000000000000000169063ca5eb5e190602401600060405180830381600087803b15801561082457600080fd5b505af1158015610838573d6000803e3d6000fd5b5050505050565b6040805180820190915260008082526020820152600086866040516020016108689291906115c6565b6040516020818303038152906040529050610891888261088b8b60018a8a610611565b86610c95565b98975050505050505050565b6108a561097a565b6001600160a01b0381166108cf57604051631e4fbdf760e01b815260006004820152602401610439565b6108d881610b07565b50565b60006020820180359060019083906108f39086611415565b63ffffffff1681526020810191909152604001600020541492915050565b63ffffffff81166000908152600160205260408120548061094d5760405163f6ff4fb760e01b815263ffffffff84166004820152602401610439565b92915050565b6000610961858701876117d9565b9050600361096f8282611871565b505050505050505050565b6000546001600160a01b031633146105e05760405163118cdaa760e01b8152336004820152602401610439565b63ffffffff8216600081815260016020908152604091829020849055815192835282018390527f238399d427b947898edb290f5ff0f9109849b1c3ba196a42e35f00c50a54b98b910160405180910390a15050565b610a04611075565b6000610a138460000151610d76565b602085015190915015610a2d57610a2d8460200151610d9e565b7f00000000000000000000000000000000000000000000000000000000000000006001600160a01b0316632637a450826040518060a001604052808b63ffffffff168152602001610a7d8c610911565b81526020018a815260200189815260200160008960200151111515815250866040518463ffffffff1660e01b8152600401610ab9929190611930565b60806040518083038185885af1158015610ad7573d6000803e3d6000fd5b50505050506040513d601f19601f82011682018060405250810190610afc91906119f7565b979650505050505050565b600080546001600160a01b038381166001600160a01b0319831681178455604051919092169283917f8be0079c531659141344cd1fd0a4f28419497f9722a3daafe3b4186f6b6457e09190a35050565b60005b8151811015610c2e57610b89828281518110610b7857610b78611a4d565b602002602001015160400151610c69565b818181518110610b9b57610b9b611a4d565b60200260200101516040015160026000848481518110610bbd57610bbd611a4d565b60200260200101516000015163ffffffff1663ffffffff1681526020019081526020016000206000848481518110610bf757610bf7611a4d565b60200260200101516020015161ffff1661ffff1681526020019081526020016000209081610c259190611871565b50600101610b5a565b507fbe4864a8e820971c0247f5992e2da559595f7bf076a21cb5928d443d2a13b67481604051610c5e9190611a63565b60405180910390a150565b600281015161ffff81166003146105525781604051639a6d49cd60e01b81526004016104399190611220565b60408051808201909152600080825260208201527f00000000000000000000000000000000000000000000000000000000000000006001600160a01b031663ddc28c586040518060a001604052808863ffffffff168152602001610cf889610911565b8152602001878152602001868152602001851515815250306040518363ffffffff1660e01b8152600401610d2d929190611930565b6040805180830381865afa158015610d49573d6000803e3d6000fd5b505050506040513d601f19601f82011682018060405250810190610d6d9190611aee565b95945050505050565b6000813414610d9a576040516304fb820960e51b8152346004820152602401610439565b5090565b60007f00000000000000000000000000000000000000000000000000000000000000006001600160a01b031663e4fe1d946040518163ffffffff1660e01b8152600401602060405180830381865afa158015610dfe573d6000803e3d6000fd5b505050506040513d601f19601f82011682018060405250810190610e229190611b0a565b90506001600160a01b038116610e4b576040516329b99a9560e11b815260040160405180910390fd5b6040805133602482018190527f00000000000000000000000000000000000000000000000000000000000000006001600160a01b03818116604485015260648085018890528551808603909101815260849094019094526020830180516001600160e01b03166323b872dd60e01b179052610552938516928690610ed0908590610ed6565b50505050565b6000610eeb6001600160a01b03841683610f3e565b90508051600014158015610f10575080806020019051810190610f0e9190611b27565b155b15610f3957604051635274afe760e01b81526001600160a01b0384166004820152602401610439565b505050565b6060610f4c83836000610f53565b9392505050565b606081471015610f785760405163cd78605960e01b8152306004820152602401610439565b600080856001600160a01b03168486604051610f949190611b44565b60006040518083038185875af1925050503d8060008114610fd1576040519150601f19603f3d011682016040523d82523d6000602084013e610fd6565b606091505b5091509150610fe6868383610ff0565b9695505050505050565b606082611005576110008261104c565b610f4c565b815115801561101c57506001600160a01b0384163b155b1561104557604051639996b31560e01b81526001600160a01b0385166004820152602401610439565b5080610f4c565b80511561105c5780518082602001fd5b604051630a12f52160e11b815260040160405180910390fd5b60405180606001604052806000801916815260200160006001600160401b031681526020016110b7604051806040016040528060008152602001600081525090565b905290565b6000606082840312156110ce57600080fd5b50919050565b60008083601f8401126110e657600080fd5b5081356001600160401b038111156110fd57600080fd5b60208301915083602082850101111561111557600080fd5b9250929050565b6001600160a01b03811681146108d857600080fd5b600080600080600080600060e0888a03121561114c57600080fd5b61115689896110bc565b96506060880135955060808801356001600160401b038082111561117957600080fd5b6111858b838c016110d4565b909750955060a08a0135915061119a8261111c565b90935060c089013590808211156111b057600080fd5b506111bd8a828b016110d4565b989b979a50959850939692959293505050565b60005b838110156111eb5781810151838201526020016111d3565b50506000910152565b6000815180845261120c8160208601602086016111d0565b601f01601f19169290920160200192915050565b602081526000610f4c60208301846111f4565b803563ffffffff8116811461124757600080fd5b919050565b6000806040838503121561125f57600080fd5b61126883611233565b946020939093013593505050565b60008060008060006060868803121561128e57600080fd5b61129786611233565b945060208601356001600160401b03808211156112b357600080fd5b6112bf89838a016110d4565b909650945060408801359150808211156112d857600080fd5b506112e5888289016110d4565b969995985093965092949392505050565b803561ffff8116811461124757600080fd5b6000806040838503121561131b57600080fd5b61132483611233565b9150611332602084016112f6565b90509250929050565b60008060008060a0858703121561135157600080fd5b61135b86866110bc565b935060608501356001600160401b0381111561137657600080fd5b611382878288016110d4565b90945092505060808501356113968161111c565b939692955090935050565b600080602083850312156113b457600080fd5b82356001600160401b03808211156113cb57600080fd5b818501915085601f8301126113df57600080fd5b8135818111156113ee57600080fd5b8660208260051b850101111561140357600080fd5b60209290920196919550909350505050565b60006020828403121561142757600080fd5b610f4c82611233565b6000806000806060858703121561144657600080fd5b61144f85611233565b935061145d602086016112f6565b925060408501356001600160401b0381111561147857600080fd5b611484878288016110d4565b95989497509550505050565b6000602082840312156114a257600080fd5b8135610f4c8161111c565b80151581146108d857600080fd5b600080600080600080608087890312156114d457600080fd5b6114dd87611233565b955060208701356001600160401b03808211156114f957600080fd5b6115058a838b016110d4565b9097509550604089013591508082111561151e57600080fd5b5061152b89828a016110d4565b909450925050606087013561153f816114ad565b809150509295509295509295565b60006060828403121561155f57600080fd5b610f4c83836110bc565b600181811c9082168061157d57607f821691505b6020821081036110ce57634e487b7160e01b600052602260045260246000fd5b81835281816020850137506000828201602090810191909152601f909101601f19169091010190565b6020815260006105ef60208301848661159d565b634e487b7160e01b600052604160045260246000fd5b604051606081016001600160401b0381118282101715611612576116126115da565b60405290565b604051601f8201601f191681016001600160401b0381118282101715611640576116406115da565b604052919050565b60006001600160401b03831115611661576116616115da565b611674601f8401601f1916602001611618565b905082815283838301111561168857600080fd5b828260208301376000602084830101529392505050565b60006001600160401b03808411156116b9576116b96115da565b8360051b60206116ca818301611618565b8681529185019181810190368411156116e257600080fd5b865b8481101561177b578035868111156116fc5760008081fd5b880160603682900312156117105760008081fd5b6117186115f0565b61172182611233565b815261172e8683016112f6565b86820152604080830135898111156117465760008081fd5b929092019136601f84011261175b5760008081fd5b611769368435898601611648565b908201528452509183019183016116e4565b50979650505050505050565b6000808585111561179757600080fd5b838611156117a457600080fd5b5050820193919092039150565b600084516117c38184602089016111d0565b8201838582376000930192835250909392505050565b6000602082840312156117eb57600080fd5b81356001600160401b0381111561180157600080fd5b8201601f8101841361181257600080fd5b6105ef84823560208401611648565b601f821115610f39576000816000526020600020601f850160051c8101602086101561184a5750805b601f850160051c820191505b8181101561186957828155600101611856565b505050505050565b81516001600160401b0381111561188a5761188a6115da565b61189e816118988454611569565b84611821565b602080601f8311600181146118d357600084156118bb5750858301515b600019600386901b1c1916600185901b178555611869565b600085815260208120601f198616915b82811015611902578886015182559484019460019091019084016118e3565b50858210156119205787850151600019600388901b60f8161c191681555b5050505050600190811b01905550565b6040815263ffffffff8351166040820152602083015160608201526000604084015160a0608084015261196660e08401826111f4565b90506060850151603f198483030160a085015261198382826111f4565b60809690960151151560c08501525050506001600160a01b039190911660209091015290565b6000604082840312156119bb57600080fd5b604051604081018181106001600160401b03821117156119dd576119dd6115da565b604052825181526020928301519281019290925250919050565b600060808284031215611a0957600080fd5b611a116115f0565b8251815260208301516001600160401b0381168114611a2f57600080fd5b6020820152611a4184604085016119a9565b60408201529392505050565b634e487b7160e01b600052603260045260246000fd5b600060208083018184528085518083526040925060408601915060408160051b87010184880160005b83811015611ae057888303603f190185528151805163ffffffff1684528781015161ffff16888501528601516060878501819052611acc818601836111f4565b968901969450505090860190600101611a8c565b509098975050505050505050565b600060408284031215611b0057600080fd5b610f4c83836119a9565b600060208284031215611b1c57600080fd5b8151610f4c8161111c565b600060208284031215611b3957600080fd5b8151610f4c816114ad565b60008251611b568184602087016111d0565b919091019291505056fea2646970667358221220ac3442ef882e488bfc75ccb7418dc1f8be406d58fd9df983fab2dd25147011d764736f6c63430008160033",
  "devdoc": {
    "errors": {
      "AddressEmptyCode(address)": [
        {
          "details": "There's no code at `target` (it is not a contract)."
        }
      ],
      "AddressInsufficientBalance(address)": [
        {
          "details": "The ETH balance of the account is not enough to perform the operation."
        }
      ],
      "FailedInnerCall()": [
        {
          "details": "A call to an address target failed. The target may have reverted."
        }
      ],
      "OwnableInvalidOwner(address)": [
        {
          "details": "The owner is not a valid owner account. (eg. `address(0)`)"
        }
      ],
      "OwnableUnauthorizedAccount(address)": [
        {
          "details": "The caller account is not authorized to perform an operation."
        }
      ],
      "SafeERC20FailedOperation(address)": [
        {
          "details": "An operation with an ERC20 token failed."
        }
      ]
    },
    "kind": "dev",
    "methods": {
      "allowInitializePath((uint32,bytes32,uint64))": {
        "details": "This indicates to the endpoint that the OApp has enabled msgs for this particular path to be received.This defaults to assuming if a peer has been set, its initialized. Can be overridden by the OApp if there is other logic to determine this.",
        "params": {
          "origin": "The origin information containing the source endpoint and sender address."
        },
        "returns": {
          "_0": "Whether the path has been initialized."
        }
      },
      "combineOptions(uint32,uint16,bytes)": {
        "details": "If there is an enforced lzReceive option: - {gasLimit: 200k, msg.value: 1 ether} AND a caller supplies a lzReceive option: {gasLimit: 100k, msg.value: 0.5 ether} - The resulting options will be {gasLimit: 300k, msg.value: 1.5 ether} when the message is executed on the remote lzReceive() function.This presence of duplicated options is handled off-chain in the verifier/executor.",
        "params": {
          "_eid": "The endpoint ID.",
          "_extraOptions": "Additional options passed by the caller.",
          "_msgType": "The OAPP message type."
        },
        "returns": {
          "_0": "options The combination of caller specified options AND enforced options."
        }
      },
      "constructor": {
        "params": {
          "_endpoint": "The local chain's LayerZero Endpoint V2 address",
          "_owner": "The address permitted to configure this OApp"
        }
      },
      "isComposeMsgSender((uint32,bytes32,uint64),bytes,address)": {
        "details": "_origin The origin information containing the source endpoint and sender address.  - srcEid: The source chain endpoint ID.  - sender: The sender address on the src chain.  - nonce: The nonce of the message._message The lzReceive payload.Applications can optionally choose to implement separate composeMsg senders that are NOT the bridging layer.The default sender IS the OAppReceiver implementer.",
        "params": {
          "_sender": "The sender address."
        },
        "returns": {
          "_0": "isSender Is a valid sender."
        }
      },
      "lzReceive((uint32,bytes32,uint64),bytes32,bytes,address,bytes)": {
        "details": "Entry point for receiving messages or packets from the endpoint.Entry point for receiving msg/packet from the LayerZero endpoint.",
        "params": {
          "_executor": "The address of the executor for the received message.",
          "_extraData": "Additional arbitrary data provided by the corresponding executor.",
          "_guid": "The unique identifier for the received LayerZero message.",
          "_message": "The payload of the received message.",
          "_origin": "The origin information containing the source endpoint and sender address.  - srcEid: The source chain endpoint ID.  - sender: The sender address on the src chain.  - nonce: The nonce of the message."
        }
      },
      "nextNonce(uint32,bytes32)": {
        "details": "_srcEid The source endpoint ID._sender The sender address.The path nonce starts from 1. If 0 is returned it means that there is NO nonce ordered enforcement.Is required by the off-chain executor to determine the OApp expects msg execution is ordered.This is also enforced by the OApp.By default this is NOT enabled. ie. nextNonce is hardcoded to return 0.",
        "returns": {
          "nonce": "The next nonce."
        }
      },
      "oAppVersion()": {
        "returns": {
          "receiverVersion": "The version of the OAppReceiver.sol implementation.",
          "senderVersion": "The version of the OAppSender.sol implementation."
        }
      },
      "owner()": {
        "details": "Returns the address of the current owner."
      },
      "quoteSendString(uint32,string,bytes,bool)": {
        "params": {
          "_dstEid": "Destination chain's endpoint ID.",
          "_options": "Message execution options (e.g., for sending gas to destination).",
          "_payInLzToken": "Whether to return fee in ZRO token.",
          "_string": "The string to send."
        },
        "returns": {
          "fee": "A `MessagingFee` struct containing the calculated gas fee in either the native token or ZRO token."
        }
      },
      "renounceOwnership()": {
        "details": "Leaves the contract without owner. It will not be possible to call `onlyOwner` functions. Can only be called by the current owner. NOTE: Renouncing ownership will leave the contract without an owner, thereby disabling any functionality that is only available to the owner."
      },
      "sendString(uint32,string,bytes)": {
        "params": {
          "_dstEid": "Destination Endpoint ID (uint32)",
          "_options": "Execution options for gas on the destination (bytes)",
          "_string": "The string to send"
        }
      },
      "setDelegate(address)": {
        "details": "Only the owner/admin of the OApp can call this function.Provides the ability for a delegate to set configs, on behalf of the OApp, directly on the Endpoint contract.",
        "params": {
          "_delegate": "The address of the delegate to be set."
        }
      },
      "setEnforcedOptions((uint32,uint16,bytes)[])": {
        "details": "Sets the enforced options for specific endpoint and message type combinations.Only the owner/admin of the OApp can call this function.Provides a way for the OApp to enforce things like paying for PreCrime, AND/OR minimum dst lzReceive gas amounts etc.These enforced options can vary as the potential options/execution on the remote may differ as per the msgType. eg. Amount of lzReceive() gas necessary to deliver a lzCompose() message adds overhead you dont want to pay if you are only making a standard LayerZero message ie. lzReceive() WITHOUT sendCompose().",
        "params": {
          "_enforcedOptions": "An array of EnforcedOptionParam structures specifying enforced options."
        }
      },
      "setPeer(uint32,bytes32)": {
        "details": "Only the owner/admin of the OApp can call this function.Indicates that the peer is trusted to send LayerZero messages to this OApp.Set this to bytes32(0) to remove the peer address.Peer is a bytes32 to accommodate non-evm chains.",
        "params": {
          "_eid": "The endpoint ID.",
          "_peer": "The address of the peer to be associated with the corresponding endpoint."
        }
      },
      "transferOwnership(address)": {
        "details": "Transfers ownership of the contract to a new account (`newOwner`). Can only be called by the current owner."
      }
    },
    "version": 1
  },
  "userdoc": {
    "kind": "user",
    "methods": {
      "SEND()": {
        "notice": "Msg type for sending a string, for use in OAppOptionsType3 as an enforced option"
      },
      "allowInitializePath((uint32,bytes32,uint64))": {
        "notice": "Checks if the path initialization is allowed based on the provided origin."
      },
      "combineOptions(uint32,uint16,bytes)": {
        "notice": "Combines options for a given endpoint and message type."
      },
      "constructor": {
        "notice": "Initialize with Endpoint V2 and owner address"
      },
      "endpoint()": {
        "notice": "Retrieves the LayerZero endpoint associated with the OApp."
      },
      "isComposeMsgSender((uint32,bytes32,uint64),bytes,address)": {
        "notice": "Indicates whether an address is an approved composeMsg sender to the Endpoint."
      },
      "lastMessage()": {
        "notice": "Last string received from any remote chain"
      },
      "nextNonce(uint32,bytes32)": {
        "notice": "Retrieves the next nonce for a given source endpoint and sender address."
      },
      "oAppVersion()": {
        "notice": "Retrieves the OApp version information."
      },
      "peers(uint32)": {
        "notice": "Retrieves the peer (OApp) associated with a corresponding endpoint."
      },
      "quoteSendString(uint32,string,bytes,bool)": {
        "notice": "Quotes the gas needed to pay for the full omnichain transaction in native gas or ZRO token."
      },
      "sendString(uint32,string,bytes)": {
        "notice": "Send a string to a remote OApp on another chain"
      },
      "setDelegate(address)": {
        "notice": "Sets the delegate address for the OApp."
      },
      "setPeer(uint32,bytes32)": {
        "notice": "Sets the peer address (OApp instance) for a corresponding endpoint."
      }
    },
    "version": 1
  },
  "storageLayout": {
    "storage": [
      {
        "astId": 1533,
        "contract": "contracts/MyOApp.sol:MyOApp",
        "label": "_owner",
        "offset": 0,
        "slot": "0",
        "type": "t_address"
      },
      {
        "astId": 785,
        "contract": "contracts/MyOApp.sol:MyOApp",
        "label": "peers",
        "offset": 0,
        "slot": "1",
        "type": "t_mapping(t_uint32,t_bytes32)"
      },
      {
        "astId": 1381,
        "contract": "contracts/MyOApp.sol:MyOApp",
        "label": "enforcedOptions",
        "offset": 0,
        "slot": "2",
        "type": "t_mapping(t_uint32,t_mapping(t_uint16,t_bytes_storage))"
      },
      {
        "astId": 2376,
        "contract": "contracts/MyOApp.sol:MyOApp",
        "label": "lastMessage",
        "offset": 0,
        "slot": "3",
        "type": "t_string_storage"
      }
    ],
    "types": {
      "t_address": {
        "encoding": "inplace",
        "label": "address",
        "numberOfBytes": "20"
      },
      "t_bytes32": {
        "encoding": "inplace",
        "label": "bytes32",
        "numberOfBytes": "32"
      },
      "t_bytes_storage": {
        "encoding": "bytes",
        "label": "bytes",
        "numberOfBytes": "32"
      },
      "t_mapping(t_uint16,t_bytes_storage)": {
        "encoding": "mapping",
        "key": "t_uint16",
        "label": "mapping(uint16 => bytes)",
        "numberOfBytes": "32",
        "value": "t_bytes_storage"
      },
      "t_mapping(t_uint32,t_bytes32)": {
        "encoding": "mapping",
        "key": "t_uint32",
        "label": "mapping(uint32 => bytes32)",
        "numberOfBytes": "32",
        "value": "t_bytes32"
      },
      "t_mapping(t_uint32,t_mapping(t_uint16,t_bytes_storage))": {
        "encoding": "mapping",
        "key": "t_uint32",
        "label": "mapping(uint32 => mapping(uint16 => bytes))",
        "numberOfBytes": "32",
        "value": "t_mapping(t_uint16,t_bytes_storage)"
      },
      "t_string_storage": {
        "encoding": "bytes",
        "label": "string",
        "numberOfBytes": "32"
      },
      "t_uint16": {
        "encoding": "inplace",
        "label": "uint16",
        "numberOfBytes": "2"
      },
      "t_uint32": {
        "encoding": "inplace",
        "label": "uint32",
        "numberOfBytes": "4"
      }
    }
  }
}